{
  "contractName": "MultiParty",
  "abi": [
    {
      "inputs": [],
      "stateMutability": "nonpayable",
      "type": "constructor"
    },
    {
      "inputs": [],
      "name": "initContractStatusChange",
      "outputs": [
        {
          "internalType": "uint256",
          "name": "",
          "type": "uint256"
        }
      ],
      "stateMutability": "nonpayable",
      "type": "function"
    },
    {
      "inputs": [
        {
          "internalType": "uint256",
          "name": "requestId",
          "type": "uint256"
        }
      ],
      "name": "signConcencus",
      "outputs": [
        {
          "internalType": "uint256",
          "name": "",
          "type": "uint256"
        }
      ],
      "stateMutability": "nonpayable",
      "type": "function"
    },
    {
      "inputs": [
        {
          "internalType": "address",
          "name": "newAdmin",
          "type": "address"
        }
      ],
      "name": "addAdmin",
      "outputs": [],
      "stateMutability": "nonpayable",
      "type": "function"
    }
  ],
  "bytecode": "0x6080604052600360025534801561001557600080fd5b5060016000806101000a81548160ff02191690831515021790555060006001819055506001600460003373ffffffffffffffffffffffffffffffffffffffff1673ffffffffffffffffffffffffffffffffffffffff16815260200190815260200160002060006101000a81548160ff0219169083151502179055506108d78061009f6000396000f3fe608060405234801561001057600080fd5b50600436106100415760003560e01c806370480275146100465780638101fbd414610062578063bb8db27214610092575b600080fd5b610060600480360381019061005b91906106eb565b6100b0565b005b61007c6004803603810190610077919061074e565b610161565b604051610089919061078a565b60405180910390f35b61009a61040d565b6040516100a7919061078a565b60405180910390f35b600460003373ffffffffffffffffffffffffffffffffffffffff1673ffffffffffffffffffffffffffffffffffffffff16815260200190815260200160002060009054906101000a900460ff1661010657600080fd5b6001600460008373ffffffffffffffffffffffffffffffffffffffff1673ffffffffffffffffffffffffffffffffffffffff16815260200190815260200160002060006101000a81548160ff02191690831515021790555050565b6000600460003373ffffffffffffffffffffffffffffffffffffffff1673ffffffffffffffffffffffffffffffffffffffff16815260200190815260200160002060009054906101000a900460ff166101b957600080fd5b600115156003600084815260200190815260200160002060010160009054906101000a900460ff161515146101ed57600080fd5b60006003600084815260200190815260200160002060000180548060200260200160405190810160405280929190818152602001828054801561028557602002820191906000526020600020905b8160009054906101000a900473ffffffffffffffffffffffffffffffffffffffff1673ffffffffffffffffffffffffffffffffffffffff168152602001906001019080831161023b575b5050505050905060005b81518110156102fd573373ffffffffffffffffffffffffffffffffffffffff168282815181106102c2576102c16107a5565b5b602002602001015173ffffffffffffffffffffffffffffffffffffffff16036102ea57600080fd5b80806102f590610803565b91505061028f565b5060036000848152602001908152602001600020600001339080600181540180825580915050600190039060005260206000200160009091909190916101000a81548173ffffffffffffffffffffffffffffffffffffffff021916908373ffffffffffffffffffffffffffffffffffffffff1602179055506002546003600085815260200190815260200160002060000180549050036103eb5760006003600085815260200190815260200160002060010160006101000a81548160ff0219169083151502179055506103ea60008054906101000a900460ff166103e25760016103e5565b60005b61056f565b5b6003600084815260200190815260200160002060000180549050915050919050565b6000600460003373ffffffffffffffffffffffffffffffffffffffff1673ffffffffffffffffffffffffffffffffffffffff16815260200190815260200160002060009054906101000a900460ff1661046557600080fd5b6001806000828254610477919061084b565b92505081905550606060405180604001604052808281526020016001151581525060036000600154815260200190815260200160002060008201518160000190805190602001906104c99291906105e1565b5060208201518160010160006101000a81548160ff021916908315150217905550905050600360006001548152602001908152602001600020600001339080600181540180825580915050600190039060005260206000200160009091909190916101000a81548173ffffffffffffffffffffffffffffffffffffffff021916908373ffffffffffffffffffffffffffffffffffffffff16021790555060015491505090565b600460003373ffffffffffffffffffffffffffffffffffffffff1673ffffffffffffffffffffffffffffffffffffffff16815260200190815260200160002060009054906101000a900460ff166105c557600080fd5b806000806101000a81548160ff02191690831515021790555050565b82805482825590600052602060002090810192821561065a579160200282015b828111156106595782518260006101000a81548173ffffffffffffffffffffffffffffffffffffffff021916908373ffffffffffffffffffffffffffffffffffffffff16021790555091602001919060010190610601565b5b509050610667919061066b565b5090565b5b8082111561068457600081600090555060010161066c565b5090565b600080fd5b600073ffffffffffffffffffffffffffffffffffffffff82169050919050565b60006106b88261068d565b9050919050565b6106c8816106ad565b81146106d357600080fd5b50565b6000813590506106e5816106bf565b92915050565b60006020828403121561070157610700610688565b5b600061070f848285016106d6565b91505092915050565b6000819050919050565b61072b81610718565b811461073657600080fd5b50565b60008135905061074881610722565b92915050565b60006020828403121561076457610763610688565b5b600061077284828501610739565b91505092915050565b61078481610718565b82525050565b600060208201905061079f600083018461077b565b92915050565b7f4e487b7100000000000000000000000000000000000000000000000000000000600052603260045260246000fd5b7f4e487b7100000000000000000000000000000000000000000000000000000000600052601160045260246000fd5b600061080e82610718565b91507fffffffffffffffffffffffffffffffffffffffffffffffffffffffffffffffff82036108405761083f6107d4565b5b600182019050919050565b600061085682610718565b915061086183610718565b9250827fffffffffffffffffffffffffffffffffffffffffffffffffffffffffffffffff03821115610896576108956107d4565b5b82820190509291505056fea2646970667358221220a5cc4c193f3c669f5608e9bc42655555cfedeb973b54db707d524a4089432d0e64736f6c634300080f0033",
  "immutableReferences": {},
  "source": "// SPDX-License-Identifier: MIT\npragma solidity >= 0.5.0;\n\ncontract MultiParty {\n    bool isOperational;\n    uint256 ledgerRequest;\n    uint concensusLimit = 3;\n\n    mapping(uint256 => ledgerRequestStatus) concensusLedger;\n    mapping(address => bool) admins;\n    \n    struct ledgerRequestStatus {\n        address[] signedBy;\n        bool active; \n    }\n\n    constructor() {\n        isOperational = true;\n        ledgerRequest = 0;\n        admins[msg.sender] = true;\n    }\n\n    modifier onlyAdmin() {\n        require(admins[msg.sender]);\n        _;\n    }\n\n    modifier needsOperational {\n        require(isOperational);\n        _;\n    }\n\n    function initContractStatusChange() onlyAdmin public returns (uint256) {\n        ledgerRequest += 1;\n\n        address [] memory ref;\n        concensusLedger[ledgerRequest] = ledgerRequestStatus(ref, true);\n        concensusLedger[ledgerRequest].signedBy.push(msg.sender);\n\n        return ledgerRequest;\n    }\n\n    function signConcencus(uint256 requestId) onlyAdmin public returns (uint256) {\n        require(concensusLedger[requestId].active == true);\n        address[] memory existingConcensusForRequest = concensusLedger[requestId].signedBy;\n        for (uint256 i = 0; i < existingConcensusForRequest.length; i++) {\n            require (existingConcensusForRequest[i] != msg.sender);\n        }\n        concensusLedger[requestId].signedBy.push(msg.sender);\n        if (concensusLedger[requestId].signedBy.length == concensusLimit) {\n            concensusLedger[requestId].active = false;\n            setOperational(isOperational ? false : true);\n        }\n        return concensusLedger[requestId].signedBy.length;\n    }\n\n    function setOperational(bool _operational) onlyAdmin internal {\n        isOperational = _operational;\n    }\n\n    function addAdmin(address newAdmin) onlyAdmin public {\n        admins[newAdmin] = true;\n    } \n}",
  "sourcePath": "/Users/venkat/Documents/GitHub/blockchain-notebook/models/multiparty-consensus/contracts/multi-party.sol",
  "compiler": {
    "name": "solc",
    "version": "0.8.15+commit.e14f2714.Emscripten.clang"
  },
  "schemaVersion": "3.4.7",
  "updatedAt": "2022-07-09T02:08:05.324Z",
  "devdoc": {
    "kind": "dev",
    "methods": {},
    "version": 1
  },
  "userdoc": {
    "kind": "user",
    "methods": {},
    "version": 1
  }
}