{
  "contractName": "SolnSquareVerifier",
  "abi": [
    {
      "anonymous": false,
      "inputs": [
        {
          "indexed": true,
          "internalType": "address",
          "name": "owner",
          "type": "address"
        },
        {
          "indexed": true,
          "internalType": "address",
          "name": "approved",
          "type": "address"
        },
        {
          "indexed": true,
          "internalType": "uint256",
          "name": "tokenId",
          "type": "uint256"
        }
      ],
      "name": "Approval",
      "type": "event"
    },
    {
      "anonymous": false,
      "inputs": [
        {
          "indexed": true,
          "internalType": "address",
          "name": "owner",
          "type": "address"
        },
        {
          "indexed": true,
          "internalType": "address",
          "name": "operator",
          "type": "address"
        },
        {
          "indexed": false,
          "internalType": "bool",
          "name": "approved",
          "type": "bool"
        }
      ],
      "name": "ApprovalForAll",
      "type": "event"
    },
    {
      "anonymous": false,
      "inputs": [
        {
          "indexed": false,
          "internalType": "address",
          "name": "caller",
          "type": "address"
        }
      ],
      "name": "Paused",
      "type": "event"
    },
    {
      "anonymous": false,
      "inputs": [
        {
          "indexed": false,
          "internalType": "bytes32",
          "name": "key",
          "type": "bytes32"
        },
        {
          "indexed": false,
          "internalType": "address",
          "name": "addr",
          "type": "address"
        },
        {
          "indexed": false,
          "internalType": "uint256",
          "name": "tokenId",
          "type": "uint256"
        }
      ],
      "name": "SolutionAdded",
      "type": "event"
    },
    {
      "anonymous": false,
      "inputs": [
        {
          "indexed": true,
          "internalType": "address",
          "name": "from",
          "type": "address"
        },
        {
          "indexed": true,
          "internalType": "address",
          "name": "to",
          "type": "address"
        },
        {
          "indexed": true,
          "internalType": "uint256",
          "name": "tokenId",
          "type": "uint256"
        }
      ],
      "name": "Transfer",
      "type": "event"
    },
    {
      "anonymous": false,
      "inputs": [
        {
          "indexed": false,
          "internalType": "address",
          "name": "caller",
          "type": "address"
        }
      ],
      "name": "Unpaused",
      "type": "event"
    },
    {
      "anonymous": false,
      "inputs": [
        {
          "indexed": false,
          "internalType": "string",
          "name": "s",
          "type": "string"
        }
      ],
      "name": "Verified",
      "type": "event"
    },
    {
      "anonymous": false,
      "inputs": [
        {
          "indexed": false,
          "internalType": "address",
          "name": "oldOwner",
          "type": "address"
        },
        {
          "indexed": false,
          "internalType": "address",
          "name": "newOwner",
          "type": "address"
        }
      ],
      "name": "ownerShipTransfered",
      "type": "event"
    },
    {
      "constant": false,
      "inputs": [
        {
          "internalType": "bytes32",
          "name": "_myid",
          "type": "bytes32"
        },
        {
          "internalType": "string",
          "name": "_result",
          "type": "string"
        }
      ],
      "name": "__callback",
      "outputs": [],
      "payable": false,
      "stateMutability": "nonpayable",
      "type": "function"
    },
    {
      "constant": false,
      "inputs": [
        {
          "internalType": "bytes32",
          "name": "_myid",
          "type": "bytes32"
        },
        {
          "internalType": "string",
          "name": "_result",
          "type": "string"
        },
        {
          "internalType": "bytes",
          "name": "_proof",
          "type": "bytes"
        }
      ],
      "name": "__callback",
      "outputs": [],
      "payable": false,
      "stateMutability": "nonpayable",
      "type": "function"
    },
    {
      "constant": false,
      "inputs": [
        {
          "internalType": "uint256",
          "name": "tokenId",
          "type": "uint256"
        }
      ],
      "name": "_setTokenURI",
      "outputs": [],
      "payable": false,
      "stateMutability": "nonpayable",
      "type": "function"
    },
    {
      "constant": false,
      "inputs": [
        {
          "internalType": "address",
          "name": "to",
          "type": "address"
        },
        {
          "internalType": "uint256",
          "name": "tokenId",
          "type": "uint256"
        }
      ],
      "name": "approve",
      "outputs": [],
      "payable": false,
      "stateMutability": "nonpayable",
      "type": "function"
    },
    {
      "constant": true,
      "inputs": [
        {
          "internalType": "address",
          "name": "owner",
          "type": "address"
        }
      ],
      "name": "balanceOf",
      "outputs": [
        {
          "internalType": "uint256",
          "name": "",
          "type": "uint256"
        }
      ],
      "payable": false,
      "stateMutability": "view",
      "type": "function"
    },
    {
      "constant": true,
      "inputs": [],
      "name": "contractOwner",
      "outputs": [
        {
          "internalType": "address",
          "name": "",
          "type": "address"
        }
      ],
      "payable": false,
      "stateMutability": "view",
      "type": "function"
    },
    {
      "constant": true,
      "inputs": [
        {
          "internalType": "uint256",
          "name": "tokenId",
          "type": "uint256"
        }
      ],
      "name": "getApproved",
      "outputs": [
        {
          "internalType": "address",
          "name": "",
          "type": "address"
        }
      ],
      "payable": false,
      "stateMutability": "view",
      "type": "function"
    },
    {
      "constant": true,
      "inputs": [],
      "name": "getBaseTokenUri",
      "outputs": [
        {
          "internalType": "string",
          "name": "",
          "type": "string"
        }
      ],
      "payable": false,
      "stateMutability": "view",
      "type": "function"
    },
    {
      "constant": true,
      "inputs": [],
      "name": "getName",
      "outputs": [
        {
          "internalType": "string",
          "name": "",
          "type": "string"
        }
      ],
      "payable": false,
      "stateMutability": "view",
      "type": "function"
    },
    {
      "constant": true,
      "inputs": [],
      "name": "getSymbol",
      "outputs": [
        {
          "internalType": "string",
          "name": "",
          "type": "string"
        }
      ],
      "payable": false,
      "stateMutability": "view",
      "type": "function"
    },
    {
      "constant": true,
      "inputs": [
        {
          "internalType": "address",
          "name": "owner",
          "type": "address"
        },
        {
          "internalType": "address",
          "name": "operator",
          "type": "address"
        }
      ],
      "name": "isApprovedForAll",
      "outputs": [
        {
          "internalType": "bool",
          "name": "",
          "type": "bool"
        }
      ],
      "payable": false,
      "stateMutability": "view",
      "type": "function"
    },
    {
      "constant": true,
      "inputs": [
        {
          "internalType": "uint256",
          "name": "tokenId",
          "type": "uint256"
        }
      ],
      "name": "ownerOf",
      "outputs": [
        {
          "internalType": "address",
          "name": "",
          "type": "address"
        }
      ],
      "payable": false,
      "stateMutability": "view",
      "type": "function"
    },
    {
      "constant": false,
      "inputs": [
        {
          "internalType": "address",
          "name": "from",
          "type": "address"
        },
        {
          "internalType": "address",
          "name": "to",
          "type": "address"
        },
        {
          "internalType": "uint256",
          "name": "tokenId",
          "type": "uint256"
        }
      ],
      "name": "safeTransferFrom",
      "outputs": [],
      "payable": false,
      "stateMutability": "nonpayable",
      "type": "function"
    },
    {
      "constant": false,
      "inputs": [
        {
          "internalType": "address",
          "name": "from",
          "type": "address"
        },
        {
          "internalType": "address",
          "name": "to",
          "type": "address"
        },
        {
          "internalType": "uint256",
          "name": "tokenId",
          "type": "uint256"
        },
        {
          "internalType": "bytes",
          "name": "_data",
          "type": "bytes"
        }
      ],
      "name": "safeTransferFrom",
      "outputs": [],
      "payable": false,
      "stateMutability": "nonpayable",
      "type": "function"
    },
    {
      "constant": false,
      "inputs": [
        {
          "internalType": "address",
          "name": "to",
          "type": "address"
        },
        {
          "internalType": "bool",
          "name": "approved",
          "type": "bool"
        }
      ],
      "name": "setApprovalForAll",
      "outputs": [],
      "payable": false,
      "stateMutability": "nonpayable",
      "type": "function"
    },
    {
      "constant": false,
      "inputs": [
        {
          "internalType": "bool",
          "name": "paused",
          "type": "bool"
        }
      ],
      "name": "setPaused",
      "outputs": [],
      "payable": false,
      "stateMutability": "nonpayable",
      "type": "function"
    },
    {
      "constant": true,
      "inputs": [
        {
          "internalType": "bytes4",
          "name": "interfaceId",
          "type": "bytes4"
        }
      ],
      "name": "supportsInterface",
      "outputs": [
        {
          "internalType": "bool",
          "name": "",
          "type": "bool"
        }
      ],
      "payable": false,
      "stateMutability": "view",
      "type": "function"
    },
    {
      "constant": true,
      "inputs": [
        {
          "internalType": "uint256",
          "name": "index",
          "type": "uint256"
        }
      ],
      "name": "tokenByIndex",
      "outputs": [
        {
          "internalType": "uint256",
          "name": "",
          "type": "uint256"
        }
      ],
      "payable": false,
      "stateMutability": "view",
      "type": "function"
    },
    {
      "constant": true,
      "inputs": [
        {
          "internalType": "address",
          "name": "owner",
          "type": "address"
        },
        {
          "internalType": "uint256",
          "name": "index",
          "type": "uint256"
        }
      ],
      "name": "tokenOfOwnerByIndex",
      "outputs": [
        {
          "internalType": "uint256",
          "name": "",
          "type": "uint256"
        }
      ],
      "payable": false,
      "stateMutability": "view",
      "type": "function"
    },
    {
      "constant": true,
      "inputs": [
        {
          "internalType": "uint256",
          "name": "tokenId",
          "type": "uint256"
        }
      ],
      "name": "tokenURI",
      "outputs": [
        {
          "internalType": "string",
          "name": "",
          "type": "string"
        }
      ],
      "payable": false,
      "stateMutability": "view",
      "type": "function"
    },
    {
      "constant": true,
      "inputs": [],
      "name": "totalSupply",
      "outputs": [
        {
          "internalType": "uint256",
          "name": "",
          "type": "uint256"
        }
      ],
      "payable": false,
      "stateMutability": "view",
      "type": "function"
    },
    {
      "constant": false,
      "inputs": [
        {
          "internalType": "address",
          "name": "from",
          "type": "address"
        },
        {
          "internalType": "address",
          "name": "to",
          "type": "address"
        },
        {
          "internalType": "uint256",
          "name": "tokenId",
          "type": "uint256"
        }
      ],
      "name": "transferFrom",
      "outputs": [],
      "payable": false,
      "stateMutability": "nonpayable",
      "type": "function"
    },
    {
      "constant": false,
      "inputs": [
        {
          "internalType": "address",
          "name": "newOwner",
          "type": "address"
        }
      ],
      "name": "transferOwnership",
      "outputs": [],
      "payable": false,
      "stateMutability": "nonpayable",
      "type": "function"
    },
    {
      "constant": false,
      "inputs": [
        {
          "internalType": "uint256[2]",
          "name": "a",
          "type": "uint256[2]"
        },
        {
          "internalType": "uint256[2][2]",
          "name": "b",
          "type": "uint256[2][2]"
        },
        {
          "internalType": "uint256[2]",
          "name": "c",
          "type": "uint256[2]"
        },
        {
          "internalType": "uint256[2]",
          "name": "input",
          "type": "uint256[2]"
        }
      ],
      "name": "verifyTx",
      "outputs": [
        {
          "internalType": "bool",
          "name": "r",
          "type": "bool"
        }
      ],
      "payable": false,
      "stateMutability": "nonpayable",
      "type": "function"
    },
    {
      "constant": false,
      "inputs": [
        {
          "internalType": "address",
          "name": "addr",
          "type": "address"
        },
        {
          "internalType": "uint256",
          "name": "tokenId",
          "type": "uint256"
        },
        {
          "internalType": "uint256[2]",
          "name": "a",
          "type": "uint256[2]"
        },
        {
          "internalType": "uint256[2][2]",
          "name": "b",
          "type": "uint256[2][2]"
        },
        {
          "internalType": "uint256[2]",
          "name": "c",
          "type": "uint256[2]"
        },
        {
          "internalType": "uint256[2]",
          "name": "input",
          "type": "uint256[2]"
        }
      ],
      "name": "addSolution",
      "outputs": [],
      "payable": false,
      "stateMutability": "nonpayable",
      "type": "function"
    },
    {
      "constant": false,
      "inputs": [
        {
          "internalType": "address",
          "name": "addr",
          "type": "address"
        },
        {
          "internalType": "uint256",
          "name": "tokenId",
          "type": "uint256"
        }
      ],
      "name": "mint",
      "outputs": [
        {
          "internalType": "bool",
          "name": "",
          "type": "bool"
        }
      ],
      "payable": false,
      "stateMutability": "nonpayable",
      "type": "function"
    }
  ],
  "bytecode": "0x60806040526040518060400160405280600e81526020017f4d696e7461626c65546f6b656e730000000000000000000000000000000000008152506040518060400160405280600781526020017f4d544f4b454e53000000000000000000000000000000000000000000000000008152506040518060600160405280603f815260200162004581603f9139336000806101000a81548173ffffffffffffffffffffffffffffffffffffffff021916908373ffffffffffffffffffffffffffffffffffffffff16021790555060008060146101000a81548160ff021916908315150217905550620000fc6301ffc9a760e01b6200019860201b60201c565b620001146380ac58cd60e01b6200019860201b60201c565b6200012c63780e9d6360e01b6200019860201b60201c565b82600f90805190602001906200014492919062000238565b5081601090805190602001906200015d92919062000238565b5080601190805190602001906200017692919062000238565b506200018f635b5e139f60e01b6200019860201b60201c565b505050620002e7565b63ffffffff60e01b817bffffffffffffffffffffffffffffffffffffffffffffffffffffffff19161415620001cc57600080fd5b6001806000837bffffffffffffffffffffffffffffffffffffffffffffffffffffffff19167bffffffffffffffffffffffffffffffffffffffffffffffffffffffff1916815260200190815260200160002060006101000a81548160ff02191690831515021790555050565b828054600181600116156101000203166002900490600052602060002090601f016020900481019282601f106200027b57805160ff1916838001178555620002ac565b82800160010185558215620002ac579182015b82811115620002ab5782518255916020019190600101906200028e565b5b509050620002bb9190620002bf565b5090565b620002e491905b80821115620002e0576000816000905550600101620002c6565b5090565b90565b61428a80620002f76000396000f3fe608060405234801561001057600080fd5b506004361061018e5760003560e01c806340c10f19116100de57806370a0823111610097578063c87b56dd11610071578063c87b56dd146104a3578063ce606ee0146104d3578063e985e9c5146104f1578063f2fde38b146105215761018e565b806370a082311461043b578063a22cb4651461046b578063b88d4fde146104875761018e565b806340c10f191461034157806342842e0e146103715780634bbe847d1461038d5780634f6ccce7146103ab578063621e9ec0146103db5780636352211e1461040b5761018e565b806318160ddd1161014b5780632e4b7ec2116101255780632e4b7ec2146102bd5780632f745c59146102d957806338bbfa50146103095780633eec14da146103255761018e565b806318160ddd1461026757806323b872dd1461028557806327dc297e146102a15761018e565b806301ffc9a714610193578063081812fc146101c3578063095ea7b3146101f3578063150704011461020f57806316c38b3c1461022d57806317d7de7c14610249575b600080fd5b6101ad60048036036101a891908101906137e2565b61053d565b6040516101ba9190613d99565b60405180910390f35b6101dd60048036036101d89190810190613834565b6105a5565b6040516101ea9190613cee565b60405180910390f35b61020d600480360361020891908101906135b9565b6105e2565b005b61021761071d565b6040516102249190613deb565b60405180910390f35b610247600480360361024291908101906136e6565b6107bf565b005b6102516108be565b60405161025e9190613deb565b60405180910390f35b61026f610960565b60405161027c9190613ecd565b60405180910390f35b61029f600480360361029a91908101906134b3565b61096d565b005b6102bb60048036036102b6919081019061370f565b610990565b005b6102d760048036036102d29190810190613834565b6109d3565b005b6102f360048036036102ee91908101906135b9565b610abb565b6040516103009190613ecd565b60405180910390f35b610323600480360361031e9190810190613763565b610b2e565b005b61033f600480360361033a91908101906135f5565b610b33565b005b61035b600480360361035691908101906135b9565b610d38565b6040516103689190613d99565b60405180910390f35b61038b600480360361038691908101906134b3565b610df1565b005b610395610e11565b6040516103a29190613deb565b60405180910390f35b6103c560048036036103c09190810190613834565b610eb3565b6040516103d29190613ecd565b60405180910390f35b6103f560048036036103f09190810190613681565b610ee7565b6040516104029190613d99565b60405180910390f35b61042560048036036104209190810190613834565b611118565b6040516104329190613cee565b60405180910390f35b6104556004803603610450919081019061344e565b611155565b6040516104629190613ecd565b60405180910390f35b6104856004803603610480919081019061357d565b6111a5565b005b6104a1600480360361049c9190810190613502565b6112db565b005b6104bd60048036036104b89190810190613834565b611301565b6040516104ca9190613deb565b60405180910390f35b6104db6113c8565b6040516104e89190613cee565b60405180910390f35b61050b60048036036105069190810190613477565b6113f1565b6040516105189190613d99565b60405180910390f35b61053b6004803603610536919081019061344e565b611485565b005b600060016000837bffffffffffffffffffffffffffffffffffffffffffffffffffffffff19167bffffffffffffffffffffffffffffffffffffffffffffffffffffffff1916815260200190815260200160002060009054906101000a900460ff169050919050565b60006003600083815260200190815260200160002060009054906101000a900473ffffffffffffffffffffffffffffffffffffffff169050919050565b6105eb81611118565b73ffffffffffffffffffffffffffffffffffffffff168273ffffffffffffffffffffffffffffffffffffffff161415610659576040517f08c379a000000000000000000000000000000000000000000000000000000000815260040161065090613ead565b60405180910390fd5b61066333826115f1565b61066c57600080fd5b816003600083815260200190815260200160002060006101000a81548173ffffffffffffffffffffffffffffffffffffffff021916908373ffffffffffffffffffffffffffffffffffffffff160217905550808273ffffffffffffffffffffffffffffffffffffffff163373ffffffffffffffffffffffffffffffffffffffff167f8c5be1e5ebec7d5bd14f71427d1e84f3dd0314c0f7b2291e5b200ac8c7c3b92560405160405180910390a45050565b606060108054600181600116156101000203166002900480601f0160208091040260200160405190810160405280929190818152602001828054600181600116156101000203166002900480156107b55780601f1061078a576101008083540402835291602001916107b5565b820191906000526020600020905b81548152906001019060200180831161079857829003601f168201915b5050505050905090565b6000809054906101000a900473ffffffffffffffffffffffffffffffffffffffff1673ffffffffffffffffffffffffffffffffffffffff163373ffffffffffffffffffffffffffffffffffffffff161461081857600080fd5b80600060146101000a81548160ff021916908315150217905550600060149054906101000a900460ff1615610883577f62e78cea01bee320cd4e420270b5ea74000d11b0c9f74754ebdbfc544b05a258336040516108769190613d09565b60405180910390a16108bb565b7f5db9ee0a495bf2e6ff9c91a7834c1ba4fdd244a5e8aa4e537bd38aeae4b073aa336040516108b29190613d09565b60405180910390a15b50565b6060600f8054600181600116156101000203166002900480601f0160208091040260200160405190810160405280929190818152602001828054600181600116156101000203166002900480156109565780601f1061092b57610100808354040283529160200191610956565b820191906000526020600020905b81548152906001019060200180831161093957829003601f168201915b5050505050905090565b6000600880549050905090565b61097733826115f1565b61098057600080fd5b61098b838383611686565b505050565b6109cf828260006040519080825280601f01601f1916602001820160405280156109c95781602001600182028038833980820191505090505b50610b2e565b5050565b6109dc816116aa565b6109e557600080fd5b610a9160118054600181600116156101000203166002900480601f016020809104026020016040519081016040528092919081815260200182805460018160011615610100020316600290048015610a7e5780601f10610a5357610100808354040283529160200191610a7e565b820191906000526020600020905b815481529060010190602001808311610a6157829003601f168201915b5050505050610a8c8361171c565b611849565b601260008381526020019081526020016000209080519060200190610ab7929190612f65565b5050565b6000610ac683611155565b8210610ad157600080fd5b600660008473ffffffffffffffffffffffffffffffffffffffff1673ffffffffffffffffffffffffffffffffffffffff1681526020019081526020016000208281548110610b1b57fe5b9060005260206000200154905092915050565b505050565b6000858786868686604051602001610b5096959493929190613c7e565b6040516020818303038152906040528051906020012090506014600082815260200190815260200160002060009054906101000a900460ff1615610bc9576040517f08c379a0000000000000000000000000000000000000000000000000000000008152600401610bc090613e2d565b60405180910390fd5b6000610bd786868686610ee7565b905080610c19576040517f08c379a0000000000000000000000000000000000000000000000000000000008152600401610c1090613e0d565b60405180910390fd5b610c21612fe5565b60405180606001604052808481526020018981526020018a73ffffffffffffffffffffffffffffffffffffffff16815250905080601360008a8152602001908152602001600020600082015181600001556020820151816001015560408201518160020160006101000a81548173ffffffffffffffffffffffffffffffffffffffff021916908373ffffffffffffffffffffffffffffffffffffffff16021790555090505060016014600085815260200190815260200160002060006101000a81548160ff0219169083151502179055507fd54d9ef5d3801dc9b4c79ac9cb0d5ed3b9c83d168bd86bb6e937ca7df70392da838a8a604051610d2593929190613db4565b60405180910390a1505050505050505050565b60008073ffffffffffffffffffffffffffffffffffffffff166013600084815260200190815260200160002060020160009054906101000a900473ffffffffffffffffffffffffffffffffffffffff1673ffffffffffffffffffffffffffffffffffffffff161415610ddf576040517f08c379a0000000000000000000000000000000000000000000000000000000008152600401610dd690613e2d565b60405180910390fd5b610de9838361188d565b905092915050565b610e0c838383604051806020016040528060008152506112db565b505050565b606060118054600181600116156101000203166002900480601f016020809104026020016040519081016040528092919081815260200182805460018160011615610100020316600290048015610ea95780601f10610e7e57610100808354040283529160200191610ea9565b820191906000526020600020905b815481529060010190602001808311610e8c57829003601f168201915b5050505050905090565b6000610ebd610960565b8210610ec857600080fd5b60088281548110610ed557fe5b90600052602060002001549050919050565b6000610ef161301f565b604051806040016040528087600060028110610f0957fe5b6020020151815260200187600160028110610f2057fe5b602002015181525081600001819052506040518060400160405280604051806040016040528088600060028110610f5357fe5b6020020151600060028110610f6457fe5b6020020151815260200188600060028110610f7b57fe5b6020020151600160028110610f8c57fe5b60200201518152508152602001604051806040016040528088600160028110610fb157fe5b6020020151600060028110610fc257fe5b6020020151815260200188600160028110610fd957fe5b6020020151600160028110610fea57fe5b6020020151815250815250816020018190525060405180604001604052808560006002811061101557fe5b602002015181526020018560016002811061102c57fe5b602002015181525081604001819052506060600260405190808252806020026020018201604052801561106e5781602001602082028038833980820191505090505b50905060008090505b60028110156110b65784816002811061108c57fe5b602002015182828151811061109d57fe5b6020026020010181815250508080600101915050611077565b5060006110c38284611905565b1415611109577f3f3cfdb26fb5f9f1786ab4f1a1f9cd4c0b5e726cbdfc26e495261731aad44e396040516110f690613e8d565b60405180910390a1600192505050611110565b6000925050505b949350505050565b60006002600083815260200190815260200160002060009054906101000a900473ffffffffffffffffffffffffffffffffffffffff169050919050565b600061119e600460008473ffffffffffffffffffffffffffffffffffffffff1673ffffffffffffffffffffffffffffffffffffffff168152602001908152602001600020611a77565b9050919050565b3373ffffffffffffffffffffffffffffffffffffffff168273ffffffffffffffffffffffffffffffffffffffff1614156111de57600080fd5b80600560003373ffffffffffffffffffffffffffffffffffffffff1673ffffffffffffffffffffffffffffffffffffffff16815260200190815260200160002060008473ffffffffffffffffffffffffffffffffffffffff1673ffffffffffffffffffffffffffffffffffffffff16815260200190815260200160002060006101000a81548160ff0219169083151502179055508173ffffffffffffffffffffffffffffffffffffffff163373ffffffffffffffffffffffffffffffffffffffff167f17307eab39ab6107e8899845ad3d59bd9653f200f220920489ca2b5937696c31836040516112cf9190613d99565b60405180910390a35050565b6112e684848461096d565b6112f284848484611a85565b6112fb57600080fd5b50505050565b606061130c826116aa565b61131557600080fd5b601260008381526020019081526020016000208054600181600116156101000203166002900480601f0160208091040260200160405190810160405280929190818152602001828054600181600116156101000203166002900480156113bc5780601f10611391576101008083540402835291602001916113bc565b820191906000526020600020905b81548152906001019060200180831161139f57829003601f168201915b50505050509050919050565b60008060009054906101000a900473ffffffffffffffffffffffffffffffffffffffff16905090565b6000600560008473ffffffffffffffffffffffffffffffffffffffff1673ffffffffffffffffffffffffffffffffffffffff16815260200190815260200160002060008373ffffffffffffffffffffffffffffffffffffffff1673ffffffffffffffffffffffffffffffffffffffff16815260200190815260200160002060009054906101000a900460ff16905092915050565b6000809054906101000a900473ffffffffffffffffffffffffffffffffffffffff1673ffffffffffffffffffffffffffffffffffffffff163373ffffffffffffffffffffffffffffffffffffffff16146114de57600080fd5b600073ffffffffffffffffffffffffffffffffffffffff168173ffffffffffffffffffffffffffffffffffffffff16141561154e576040517f08c379a000000000000000000000000000000000000000000000000000000000815260040161154590613e6d565b60405180910390fd5b60008060009054906101000a900473ffffffffffffffffffffffffffffffffffffffff169050816000806101000a81548173ffffffffffffffffffffffffffffffffffffffff021916908373ffffffffffffffffffffffffffffffffffffffff1602179055507ff3bcb778d34a4721d91e8b6fbfdd84afa134acaead1870b7859dfda5b1c1801c81836040516115e5929190613d70565b60405180910390a15050565b6000806115fd83611118565b90508073ffffffffffffffffffffffffffffffffffffffff168473ffffffffffffffffffffffffffffffffffffffff16148061166c57508373ffffffffffffffffffffffffffffffffffffffff16611654846105a5565b73ffffffffffffffffffffffffffffffffffffffff16145b8061167d575061167c81856113f1565b5b91505092915050565b611691838383611b9c565b61169b8382611d7a565b6116a58282611f18565b505050565b6000806002600084815260200190815260200160002060009054906101000a900473ffffffffffffffffffffffffffffffffffffffff169050600073ffffffffffffffffffffffffffffffffffffffff168173ffffffffffffffffffffffffffffffffffffffff161415915050919050565b60606000821415611764576040518060400160405280600181526020017f30000000000000000000000000000000000000000000000000000000000000008152509050611844565b600082905060005b6000821461178e578080600101915050600a828161178657fe5b04915061176c565b6060816040519080825280601f01601f1916602001820160405280156117c35781602001600182028038833980820191505090505b50905060006001830390505b6000861461183c57600a86816117e157fe5b0660300160f81b828280600190039350815181106117fb57fe5b60200101907effffffffffffffffffffffffffffffffffffffffffffffffffffffffffffff1916908160001a905350600a868161183457fe5b0495506117cf565b819450505050505b919050565b60606118858383604051806020016040528060008152506040518060200160405280600081525060405180602001604052806000815250611fdf565b905092915050565b60008060009054906101000a900473ffffffffffffffffffffffffffffffffffffffff1673ffffffffffffffffffffffffffffffffffffffff163373ffffffffffffffffffffffffffffffffffffffff16146118e857600080fd5b6118f283836122a1565b6118fb826109d3565b6001905092915050565b6000807f30644e72e131a029b85045b68181585d2833e84879b9709143e1f593f00000019050611933613052565b61193b6122c2565b905080608001515160018651011461195257600080fd5b61195a613099565b6040518060400160405280600081526020016000815250905060008090505b86518110156119f0578387828151811061198f57fe5b6020026020010151106119a157600080fd5b6119e1826119dc856080015160018501815181106119bb57fe5b60200260200101518a85815181106119cf57fe5b602002602001015161270f565b6127a3565b91508080600101915050611979565b50611a13818360800151600081518110611a0657fe5b60200260200101516127a3565b9050611a5985600001518660200151611a2b84612856565b8560400151611a3d8a60400151612856565b8760600151611a4f8960000151612856565b89602001516128f0565b611a695760019350505050611a71565b600093505050505b92915050565b600081600001549050919050565b6000611aa68473ffffffffffffffffffffffffffffffffffffffff16612a54565b611ab35760019050611b94565b60008473ffffffffffffffffffffffffffffffffffffffff1663150b7a02338887876040518563ffffffff1660e01b8152600401611af49493929190613d24565b602060405180830381600087803b158015611b0e57600080fd5b505af1158015611b22573d6000803e3d6000fd5b505050506040513d601f19601f82011682018060405250611b46919081019061380b565b905063150b7a0260e01b7bffffffffffffffffffffffffffffffffffffffffffffffffffffffff1916817bffffffffffffffffffffffffffffffffffffffffffffffffffffffff1916149150505b949350505050565b611ba683826115f1565b611baf57600080fd5b8173ffffffffffffffffffffffffffffffffffffffff168273ffffffffffffffffffffffffffffffffffffffff1614611be757600080fd5b60006003600083815260200190815260200160002060006101000a81548173ffffffffffffffffffffffffffffffffffffffff021916908373ffffffffffffffffffffffffffffffffffffffff160217905550816002600083815260200190815260200160002060006101000a81548173ffffffffffffffffffffffffffffffffffffffff021916908373ffffffffffffffffffffffffffffffffffffffff160217905550611cd3600460008573ffffffffffffffffffffffffffffffffffffffff1673ffffffffffffffffffffffffffffffffffffffff168152602001908152602001600020612a9f565b611d1a600460008473ffffffffffffffffffffffffffffffffffffffff1673ffffffffffffffffffffffffffffffffffffffff168152602001908152602001600020612ac2565b808273ffffffffffffffffffffffffffffffffffffffff168473ffffffffffffffffffffffffffffffffffffffff167fddf252ad1be2c89b69c2b068fc378daa952ba7f163c4a11628f55a4df523b3ef60405160405180910390a4505050565b6000611dd26001600660008673ffffffffffffffffffffffffffffffffffffffff1673ffffffffffffffffffffffffffffffffffffffff16815260200190815260200160002080549050612ad890919063ffffffff16565b9050600060076000848152602001908152602001600020549050818114611ebf576000600660008673ffffffffffffffffffffffffffffffffffffffff1673ffffffffffffffffffffffffffffffffffffffff1681526020019081526020016000208381548110611e3f57fe5b9060005260206000200154905080600660008773ffffffffffffffffffffffffffffffffffffffff1673ffffffffffffffffffffffffffffffffffffffff1681526020019081526020016000208381548110611e9757fe5b9060005260206000200181905550816007600083815260200190815260200160002081905550505b600660008573ffffffffffffffffffffffffffffffffffffffff1673ffffffffffffffffffffffffffffffffffffffff168152602001908152602001600020805480919060019003611f1191906130b3565b5050505050565b600660008373ffffffffffffffffffffffffffffffffffffffff1673ffffffffffffffffffffffffffffffffffffffff168152602001908152602001600020805490506007600083815260200190815260200160002081905550600660008373ffffffffffffffffffffffffffffffffffffffff1673ffffffffffffffffffffffffffffffffffffffff1681526020019081526020016000208190806001815401808255809150509060018203906000526020600020016000909192909190915055505050565b6060808690506060869050606086905060608690506060869050606081518351855187518951010101016040519080825280601f01601f19166020018201604052801561203b5781602001600182028038833980820191505090505b509050606081905060008090506000809050600090505b88518110156120c05788818151811061206757fe5b602001015160f81c60f81b83838060010194508151811061208457fe5b60200101907effffffffffffffffffffffffffffffffffffffffffffffffffffffffffffff1916908160001a9053508080600101915050612052565b600090505b8751811015612133578781815181106120da57fe5b602001015160f81c60f81b8383806001019450815181106120f757fe5b60200101907effffffffffffffffffffffffffffffffffffffffffffffffffffffffffffff1916908160001a90535080806001019150506120c5565b600090505b86518110156121a65786818151811061214d57fe5b602001015160f81c60f81b83838060010194508151811061216a57fe5b60200101907effffffffffffffffffffffffffffffffffffffffffffffffffffffffffffff1916908160001a9053508080600101915050612138565b600090505b8551811015612219578581815181106121c057fe5b602001015160f81c60f81b8383806001019450815181106121dd57fe5b60200101907effffffffffffffffffffffffffffffffffffffffffffffffffffffffffffff1916908160001a90535080806001019150506121ab565b600090505b845181101561228c5784818151811061223357fe5b602001015160f81c60f81b83838060010194508151811061225057fe5b60200101907effffffffffffffffffffffffffffffffffffffffffffffffffffffffffffff1916908160001a905350808060010191505061221e565b82995050505050505050505095945050505050565b6122ab8282612b22565b6122b58282611f18565b6122be81612c69565b5050565b6122ca613052565b60405180604001604052807f05bc585daa1e59293f8f2ed9cfe573e0f6fdaa4fb5d2a396a39ac1ceba6398fc81526020017f0a4b4dab31e8d289418dea2e8c694d524ee322a51641a7a7b604d7712b60fd728152508160000181905250604051806040016040528060405180604001604052807f2159d188ee477ff6501f0ba55b3ccf38072a9ec31b209f5c24794d2b61728f0a81526020017f18206f7abe92dc3bd7a44da6faae3eec4036b99c8869fee576d7d769b016897e815250815260200160405180604001604052807f18ea5a140eb6992ba8808cae93fbd0d09366a76cfe73f1b57e6dbc252a4fef0681526020017f0b3823ffcdcf9232d2108061be21be4735183561e8223f0a43be665e99ff1ffd8152508152508160200181905250604051806040016040528060405180604001604052807f18d9477ebbd39d14a0a6508ef233f80375836e2a51d58c756225514d4d74f3d681526020017f116335003bd35adb08a9ec2895b3dcaee5eb2c8d51a3adbde5bef33e19e9c42b815250815260200160405180604001604052807f0b1c2cdc4f6ddefe2c28799e3614b069c9008170eacbb26946032ab35f68d60981526020017f0f599ada312a5826f3cce89a4e996317ff209c2744e0d4e37f049a36ebfca2a68152508152508160400181905250604051806040016040528060405180604001604052807f280e0d66cfea9ab3d130ef6c7b2e52d596e57bb6ac8f69b7ff49bbcdd7ef0df981526020017f034f0bd73a9d774e5c271ceec6e42ea7c1dbe113568bdd6cd21d7a7cea0b3704815250815260200160405180604001604052807f12b824df068d35c19b2d3a40e510e7d4f7f447fb77fea4e531f84b243a34f91a81526020017f2d7f8a84dcc1de5eebca5cc3a7bd7ee3fae7091b57e3979c4381b6cdab4c74b4815250815250816060018190525060036040519080825280602002602001820160405280156125b157816020015b61259e6130df565b8152602001906001900390816125965790505b50816080018190525060405180604001604052807f2363aa942b7904eede22e46cf05b5c6d2b98fd65eed899496e2ce3185abcdf1881526020017f2290f6d9f00377df996ab25406dfad62e893811227d8d6d4e13199c3d6f8ae99815250816080015160008151811061262057fe5b602002602001018190525060405180604001604052807f0484cf95b5c33f20f70b17bfb58df3437885ad08eba364bb519e227980f145d881526020017f3030d1bdf5beb65669a538808f10e44670575986b99a6512e9f1a93dea90f7a1815250816080015160018151811061269157fe5b602002602001018190525060405180604001604052807ef36198513b8139e126a7ec50e5c0eae987d72396e1e5667d754276c105bc6781526020017f0403afbc865c36d609451b3ed719b6c85c5559e67568b3f3d52fc8da3abf1246815250816080015160028151811061270157fe5b602002602001018190525090565b612717613099565b61271f6130f9565b83600001518160006003811061273157fe5b60200201818152505083602001518160016003811061274c57fe5b602002018181525050828160026003811061276357fe5b6020020181815250506000606083608084600060076107d05a03f19050806000811461278e57612790565bfe5b508061279b57600080fd5b505092915050565b6127ab613099565b6127b361311b565b8360000151816000600481106127c557fe5b6020020181815250508360200151816001600481106127e057fe5b6020020181815250508260000151816002600481106127fb57fe5b60200201818152505082602001518160036004811061281657fe5b602002018181525050600060608360c084600060066107d05a03f19050806000811461284157612843565bfe5b508061284e57600080fd5b505092915050565b61285e613099565b60007f30644e72e131a029b85045b68181585d97816a916871ca8d3c208c16d87cfd4790506000836000015114801561289b575060008360200151145b156128bf5760405180604001604052806000815260200160008152509150506128eb565b604051806040016040528084600001518152602001828560200151816128e157fe5b0683038152509150505b919050565b60006060600460405190808252806020026020018201604052801561292f57816020015b61291c6130df565b8152602001906001900390816129145790505b5090506060600460405190808252806020026020018201604052801561296f57816020015b61295c61313d565b8152602001906001900390816129545790505b5090508a8260008151811061298057fe5b6020026020010181905250888260018151811061299957fe5b602002602001018190525086826002815181106129b257fe5b602002602001018190525084826003815181106129cb57fe5b602002602001018190525089816000815181106129e457fe5b602002602001018190525087816001815181106129fd57fe5b60200260200101819052508581600281518110612a1657fe5b60200260200101819052508381600381518110612a2f57fe5b6020026020010181905250612a448282612cb5565b9250505098975050505050505050565b60008060007fc5d2460186f7233c927e7db2dcc703c0e500b653ca82273b7bfad8045d85a47060001b9050833f9150808214158015612a9657506000801b8214155b92505050919050565b612ab760018260000154612ad890919063ffffffff16565b816000018190555050565b6001816000016000828254019250508190555050565b6000612b1a83836040518060400160405280601e81526020017f536166654d6174683a207375627472616374696f6e206f766572666c6f770000815250612f0a565b905092915050565b60001515612b2f826116aa565b151514612b71576040517f08c379a0000000000000000000000000000000000000000000000000000000008152600401612b6890613e4d565b60405180910390fd5b816002600083815260200190815260200160002060006101000a81548173ffffffffffffffffffffffffffffffffffffffff021916908373ffffffffffffffffffffffffffffffffffffffff160217905550612c0a600460008473ffffffffffffffffffffffffffffffffffffffff1673ffffffffffffffffffffffffffffffffffffffff168152602001908152602001600020612ac2565b808273ffffffffffffffffffffffffffffffffffffffff163373ffffffffffffffffffffffffffffffffffffffff167fddf252ad1be2c89b69c2b068fc378daa952ba7f163c4a11628f55a4df523b3ef60405160405180910390a45050565b6008805490506009600083815260200190815260200160002081905550600881908060018154018082558091505090600182039060005260206000200160009091929091909150555050565b60008151835114612cc557600080fd5b6000835190506000600682029050606081604051908082528060200260200182016040528015612d045781602001602082028038833980820191505090505b50905060008090505b83811015612eaa57868181518110612d2157fe5b602002602001015160000151826000600684020181518110612d3f57fe5b602002602001018181525050868181518110612d5757fe5b602002602001015160200151826001600684020181518110612d7557fe5b602002602001018181525050858181518110612d8d57fe5b602002602001015160000151600060028110612da557fe5b6020020151826002600684020181518110612dbc57fe5b602002602001018181525050858181518110612dd457fe5b602002602001015160000151600160028110612dec57fe5b6020020151826003600684020181518110612e0357fe5b602002602001018181525050858181518110612e1b57fe5b602002602001015160200151600060028110612e3357fe5b6020020151826004600684020181518110612e4a57fe5b602002602001018181525050858181518110612e6257fe5b602002602001015160200151600160028110612e7a57fe5b6020020151826005600684020181518110612e9157fe5b6020026020010181815250508080600101915050612d0d565b50612eb3613163565b60006020826020860260208601600060086107d05a03f190508060008114612eda57612edc565bfe5b5080612ee757600080fd5b600082600060018110612ef657fe5b602002015114159550505050505092915050565b6000838311158290612f52576040517f08c379a0000000000000000000000000000000000000000000000000000000008152600401612f499190613deb565b60405180910390fd5b5060008385039050809150509392505050565b828054600181600116156101000203166002900490600052602060002090601f016020900481019282601f10612fa657805160ff1916838001178555612fd4565b82800160010185558215612fd4579182015b82811115612fd3578251825591602001919060010190612fb8565b5b509050612fe19190613185565b5090565b60405180606001604052806000801916815260200160008152602001600073ffffffffffffffffffffffffffffffffffffffff1681525090565b60405180606001604052806130326130df565b815260200161303f61313d565b815260200161304c6130df565b81525090565b6040518060a001604052806130656130df565b815260200161307261313d565b815260200161307f61313d565b815260200161308c61313d565b8152602001606081525090565b604051806040016040528060008152602001600081525090565b8154818355818111156130da578183600052602060002091820191016130d99190613185565b5b505050565b604051806040016040528060008152602001600081525090565b6040518060600160405280600390602082028038833980820191505090505090565b6040518060800160405280600490602082028038833980820191505090505090565b60405180604001604052806131506131aa565b815260200161315d6131aa565b81525090565b6040518060200160405280600190602082028038833980820191505090505090565b6131a791905b808211156131a357600081600090555060010161318b565b5090565b90565b6040518060400160405280600290602082028038833980820191505090505090565b6000813590506131db816141d4565b92915050565b600082601f8301126131f257600080fd5b600261320561320082613f15565b613ee8565b9150818385604084028201111561321b57600080fd5b60005b8381101561324b57816132318882613255565b84526020840193506040830192505060018101905061321e565b5050505092915050565b600082601f83011261326657600080fd5b600261327961327482613f37565b613ee8565b9150818385602084028201111561328f57600080fd5b60005b838110156132bf57816132a58882613439565b845260208401935060208301925050600181019050613292565b5050505092915050565b600082601f8301126132da57600080fd5b60026132ed6132e882613f59565b613ee8565b9150818385602084028201111561330357600080fd5b60005b8381101561333357816133198882613439565b845260208401935060208301925050600181019050613306565b5050505092915050565b60008135905061334c816141eb565b92915050565b60008135905061336181614202565b92915050565b60008135905061337681614219565b92915050565b60008151905061338b81614219565b92915050565b600082601f8301126133a257600080fd5b81356133b56133b082613f7b565b613ee8565b915080825260208301602083018583830111156133d157600080fd5b6133dc838284614146565b50505092915050565b600082601f8301126133f657600080fd5b813561340961340482613fa7565b613ee8565b9150808252602083016020830185838301111561342557600080fd5b613430838284614146565b50505092915050565b60008135905061344881614230565b92915050565b60006020828403121561346057600080fd5b600061346e848285016131cc565b91505092915050565b6000806040838503121561348a57600080fd5b6000613498858286016131cc565b92505060206134a9858286016131cc565b9150509250929050565b6000806000606084860312156134c857600080fd5b60006134d6868287016131cc565b93505060206134e7868287016131cc565b92505060406134f886828701613439565b9150509250925092565b6000806000806080858703121561351857600080fd5b6000613526878288016131cc565b9450506020613537878288016131cc565b935050604061354887828801613439565b925050606085013567ffffffffffffffff81111561356557600080fd5b61357187828801613391565b91505092959194509250565b6000806040838503121561359057600080fd5b600061359e858286016131cc565b92505060206135af8582860161333d565b9150509250929050565b600080604083850312156135cc57600080fd5b60006135da858286016131cc565b92505060206135eb85828601613439565b9150509250929050565b600080600080600080610180878903121561360f57600080fd5b600061361d89828a016131cc565b965050602061362e89828a01613439565b955050604061363f89828a016132c9565b945050608061365089828a016131e1565b93505061010061366289828a016132c9565b92505061014061367489828a016132c9565b9150509295509295509295565b600080600080610140858703121561369857600080fd5b60006136a6878288016132c9565b94505060406136b7878288016131e1565b93505060c06136c8878288016132c9565b9250506101006136da878288016132c9565b91505092959194509250565b6000602082840312156136f857600080fd5b60006137068482850161333d565b91505092915050565b6000806040838503121561372257600080fd5b600061373085828601613352565b925050602083013567ffffffffffffffff81111561374d57600080fd5b613759858286016133e5565b9150509250929050565b60008060006060848603121561377857600080fd5b600061378686828701613352565b935050602084013567ffffffffffffffff8111156137a357600080fd5b6137af868287016133e5565b925050604084013567ffffffffffffffff8111156137cc57600080fd5b6137d886828701613391565b9150509250925092565b6000602082840312156137f457600080fd5b600061380284828501613367565b91505092915050565b60006020828403121561381d57600080fd5b600061382b8482850161337c565b91505092915050565b60006020828403121561384657600080fd5b600061385484828501613439565b91505092915050565b60006138698383613970565b60408301905092915050565b60006138818383613c58565b60208301905092915050565b61389681614110565b82525050565b6138a581614092565b82525050565b6138bc6138b782614092565b614188565b82525050565b6138cb81613ff1565b6138d5818461404f565b92506138e082613fd3565b8060005b838110156139115781516138f8878261385d565b965061390383614028565b9250506001810190506138e4565b505050505050565b61392281614007565b61392c8184614065565b925061393782613fe7565b8060005b8381101561396857815161394f8782613875565b965061395a83614042565b92505060018101905061393b565b505050505050565b61397981613ffc565b613983818461405a565b925061398e82613fdd565b8060005b838110156139bf5781516139a68782613875565b96506139b183614035565b925050600181019050613992565b505050505050565b6139d0816140a4565b82525050565b6139df816140b0565b82525050565b60006139f082614012565b6139fa8185614070565b9350613a0a818560208601614155565b613a13816141b6565b840191505092915050565b6000613a298261401d565b613a338185614081565b9350613a43818560208601614155565b613a4c816141b6565b840191505092915050565b6000613a64601683614081565b91507f5468652070726f6f66206973206e6f742076616c6964000000000000000000006000830152602082019050919050565b6000613aa4602183614081565b91507f54686520736f6c7574696f6e20686173206265656e2075736564206265666f7260008301527f65000000000000000000000000000000000000000000000000000000000000006020830152604082019050919050565b6000613b0a601483614081565b91507f546f6b656e20616c7265616479206578697374730000000000000000000000006000830152602082019050919050565b6000613b4a602083614081565b91507f4e6577206f776e6572206d7573742062652061207265616c20616464726573736000830152602082019050919050565b6000613b8a602283614081565b91507f5472616e73616374696f6e207375636365737366756c6c79207665726966696560008301527f642e0000000000000000000000000000000000000000000000000000000000006020830152604082019050919050565b6000613bf0602483614081565b91507f546f6b656e20697320616c7265616479206f776e6564206279206f776e65722060008301527f2d20746f000000000000000000000000000000000000000000000000000000006020830152604082019050919050565b613c5281614106565b82525050565b613c6181614106565b82525050565b613c78613c7382614106565b6141ac565b82525050565b6000613c8a8289613c67565b602082019150613c9a82886138ab565b601482019150613caa8287613919565b604082019150613cba82866138c2565b608082019150613cca8285613919565b604082019150613cda8284613919565b604082019150819050979650505050505050565b6000602082019050613d03600083018461389c565b92915050565b6000602082019050613d1e600083018461388d565b92915050565b6000608082019050613d39600083018761388d565b613d46602083018661389c565b613d536040830185613c49565b8181036060830152613d6581846139e5565b905095945050505050565b6000604082019050613d85600083018561389c565b613d92602083018461389c565b9392505050565b6000602082019050613dae60008301846139c7565b92915050565b6000606082019050613dc960008301866139d6565b613dd6602083018561389c565b613de36040830184613c49565b949350505050565b60006020820190508181036000830152613e058184613a1e565b905092915050565b60006020820190508181036000830152613e2681613a57565b9050919050565b60006020820190508181036000830152613e4681613a97565b9050919050565b60006020820190508181036000830152613e6681613afd565b9050919050565b60006020820190508181036000830152613e8681613b3d565b9050919050565b60006020820190508181036000830152613ea681613b7d565b9050919050565b60006020820190508181036000830152613ec681613be3565b9050919050565b6000602082019050613ee26000830184613c49565b92915050565b6000604051905081810181811067ffffffffffffffff82111715613f0b57600080fd5b8060405250919050565b600067ffffffffffffffff821115613f2c57600080fd5b602082029050919050565b600067ffffffffffffffff821115613f4e57600080fd5b602082029050919050565b600067ffffffffffffffff821115613f7057600080fd5b602082029050919050565b600067ffffffffffffffff821115613f9257600080fd5b601f19601f8301169050602081019050919050565b600067ffffffffffffffff821115613fbe57600080fd5b601f19601f8301169050602081019050919050565b6000819050919050565b6000819050919050565b6000819050919050565b600060029050919050565b600060029050919050565b600060029050919050565b600081519050919050565b600081519050919050565b6000602082019050919050565b6000602082019050919050565b6000602082019050919050565b600081905092915050565b600081905092915050565b600081905092915050565b600082825260208201905092915050565b600082825260208201905092915050565b600061409d826140e6565b9050919050565b60008115159050919050565b6000819050919050565b60007fffffffff0000000000000000000000000000000000000000000000000000000082169050919050565b600073ffffffffffffffffffffffffffffffffffffffff82169050919050565b6000819050919050565b600061411b82614122565b9050919050565b600061412d82614134565b9050919050565b600061413f826140e6565b9050919050565b82818337600083830152505050565b60005b83811015614173578082015181840152602081019050614158565b83811115614182576000848401525b50505050565b60006141938261419a565b9050919050565b60006141a5826141c7565b9050919050565b6000819050919050565b6000601f19601f8301169050919050565b60008160601b9050919050565b6141dd81614092565b81146141e857600080fd5b50565b6141f4816140a4565b81146141ff57600080fd5b50565b61420b816140b0565b811461421657600080fd5b50565b614222816140ba565b811461422d57600080fd5b50565b61423981614106565b811461424457600080fd5b5056fea365627a7a72315820a53d757a46575096fc7fd5cc4627b8816ff1e4425b1a2d3e1f29e04bc3f9686d6c6578706572696d656e74616cf564736f6c6343000510004068747470733a2f2f73332d75732d776573742d322e616d617a6f6e6177732e636f6d2f756461636974792d626c6f636b636861696e2f63617073746f6e652f",
  "source": "pragma solidity >=0.4.21 <0.6.0;\npragma experimental ABIEncoderV2;\nimport \"./ERC721Mintable.sol\";\nimport \"./verifier.sol\";\n\n// define a contract call to the zokrates generated solidity contract <Verifier> or <renamedVerifier>\n// define another contract named SolnSquareVerifier that inherits from your ERC721Mintable class\ncontract SolnSquareVerifier is Verifier, ERC721MintableComplete {\n    // define a solutions struct that can hold an index & an address\n    struct Solution {\n        bytes32 index;\n        uint256 tokenId;\n        address addr;\n    }\n\n    // define an array of the above struct\n    mapping(uint256 => Solution) solutions;\n\n    // define a mapping to store unique solutions submitted\n    mapping(bytes32 => bool) submittedSolutions;\n\n    // Create an event to emit when a solution is added\n    event SolutionAdded(bytes32 key, address addr, uint256 tokenId);\n\n    // Create a function to add the solutions to the array and emit the event\n    function addSolution(\n        address addr,\n        uint256 tokenId,\n        uint256[2] memory a,\n        uint256[2][2] memory b,\n        uint256[2] memory c,\n        uint256[2] memory input\n    ) public {\n        bytes32 key = keccak256(\n            abi.encodePacked(tokenId, addr,a,b,c, input)\n        );\n        require(!submittedSolutions[key], \"The solution has been used before\");\n        bool isValid = verifyTx(a,b,c,input);\n        require(isValid, \"The proof is not valid\");\n        Solution memory solution = Solution(key, tokenId, addr);\n        solutions[tokenId] = solution;\n        submittedSolutions[key] = true;\n        emit SolutionAdded(key, addr, tokenId);\n    }\n\n    // Create a function to mint new NFT only after the solution has been verified\n    //  - make sure the solution is unique (has not been used before)\n    //  - make sure you handle metadata as well as tokenSuplly\n    function mint(address addr, uint256 tokenId) public returns (bool) {\n        require(\n            solutions[tokenId].addr != address(0),\n            \"The solution has been used before\"\n        );\n        return super.mint(addr, tokenId);\n    }\n}\n",
  "sourcePath": "/Users/venkat/Documents/GitHub/blockchain-notebook/und/Blockchain-Capstone/eth-contracts/contracts/SolnSquareVerifier.sol",
  "compiler": {
    "name": "solc",
    "version": "0.5.16+commit.9c3226ce.Emscripten.clang"
  },
  "schemaVersion": "3.4.7",
  "updatedAt": "2022-07-17T06:15:19.683Z",
  "networkType": "ethereum",
  "devdoc": {
    "methods": {
      "isApprovedForAll(address,address)": {
        "details": "Tells whether an operator is approved by a given owner",
        "params": {
          "operator": "operator address which you want to query the approval of",
          "owner": "owner address which you want to query the approval of"
        },
        "return": "bool whether the given operator is approved by the given owner"
      },
      "setApprovalForAll(address,bool)": {
        "details": "Sets or unsets the approval of a given operator An operator is allowed to transfer all tokens of the sender on their behalf",
        "params": {
          "approved": "representing the status of the approval to be set",
          "to": "operator address to set the approval"
        }
      },
      "supportsInterface(bytes4)": {
        "details": "implement supportsInterface(bytes4) using a lookup table"
      },
      "tokenByIndex(uint256)": {
        "details": "Gets the token ID at a given index of all the tokens in this contract Reverts if the index is greater or equal to the total number of tokens",
        "params": {
          "index": "uint256 representing the index to be accessed of the tokens list"
        },
        "return": "uint256 token ID at the given index of the tokens list"
      },
      "tokenOfOwnerByIndex(address,uint256)": {
        "details": "Gets the token ID at a given index of the tokens list of the requested owner",
        "params": {
          "index": "uint256 representing the index to be accessed of the requested tokens list",
          "owner": "address owning the tokens list to be accessed"
        },
        "return": "uint256 token ID at the given index of the tokens list owned by the requested address"
      },
      "totalSupply()": {
        "details": "Gets the total amount of tokens stored by the contract",
        "return": "uint256 representing the total amount of tokens"
      }
    }
  },
  "userdoc": {
    "methods": {}
  }
}