{
  "contractName": "Employee",
  "abi": [
    {
      "inputs": [],
      "stateMutability": "nonpayable",
      "type": "constructor"
    },
    {
      "inputs": [
        {
          "internalType": "string",
          "name": "id",
          "type": "string"
        }
      ],
      "name": "isEmployeeRegistered",
      "outputs": [
        {
          "internalType": "bool",
          "name": "",
          "type": "bool"
        }
      ],
      "stateMutability": "view",
      "type": "function",
      "constant": true
    },
    {
      "inputs": [
        {
          "internalType": "string",
          "name": "id",
          "type": "string"
        },
        {
          "internalType": "bool",
          "name": "isAdmin",
          "type": "bool"
        },
        {
          "internalType": "address",
          "name": "wallet",
          "type": "address"
        }
      ],
      "name": "registerEmployee",
      "outputs": [],
      "stateMutability": "nonpayable",
      "type": "function"
    },
    {
      "inputs": [
        {
          "internalType": "string",
          "name": "id",
          "type": "string"
        }
      ],
      "name": "getEmployeeBonus",
      "outputs": [
        {
          "internalType": "uint256",
          "name": "",
          "type": "uint256"
        }
      ],
      "stateMutability": "view",
      "type": "function",
      "constant": true
    },
    {
      "inputs": [
        {
          "internalType": "string",
          "name": "id",
          "type": "string"
        },
        {
          "internalType": "uint256",
          "name": "sales",
          "type": "uint256"
        },
        {
          "internalType": "uint256",
          "name": "bonus",
          "type": "uint256"
        }
      ],
      "name": "updateEmployee",
      "outputs": [],
      "stateMutability": "nonpayable",
      "type": "function"
    }
  ],
  "bytecode": "0x608060405234801561001057600080fd5b50336000806101000a81548173ffffffffffffffffffffffffffffffffffffffff021916908373ffffffffffffffffffffffffffffffffffffffff160217905550610e54806100606000396000f3fe608060405234801561001057600080fd5b506004361061004c5760003560e01c8063228f25dc1461005157806356b35dd51461006d578063ea20f20a14610089578063f6f2dfcb146100b9575b600080fd5b61006b60048036038101906100669190610724565b6100e9565b005b610087600480360381019061008291906107c9565b610307565b005b6100a3600480360381019061009e9190610838565b61042c565b6040516100b09190610890565b60405180910390f35b6100d360048036038101906100ce9190610838565b610464565b6040516100e091906108ba565b60405180910390f35b60008054906101000a900473ffffffffffffffffffffffffffffffffffffffff1673ffffffffffffffffffffffffffffffffffffffff163373ffffffffffffffffffffffffffffffffffffffff1614610177576040517f08c379a000000000000000000000000000000000000000000000000000000000815260040161016e90610932565b60405180910390fd5b60018360405161018791906109cc565b908152602001604051809103902060010160009054906101000a900460ff16156101e6576040517f08c379a00000000000000000000000000000000000000000000000000000000081526004016101dd90610a2f565b60405180910390fd5b6040518060c00160405280848152602001600115158152602001831515815260200160008152602001600081526020018273ffffffffffffffffffffffffffffffffffffffff1681525060018460405161024091906109cc565b908152602001604051809103902060008201518160000190816102639190610c5b565b5060208201518160010160006101000a81548160ff02191690831515021790555060408201518160010160016101000a81548160ff021916908315150217905550606082015181600201556080820151816003015560a08201518160040160006101000a81548173ffffffffffffffffffffffffffffffffffffffff021916908373ffffffffffffffffffffffffffffffffffffffff160217905550905050505050565b60018360405161031791906109cc565b908152602001604051809103902060010160009054906101000a900460ff16610375576040517f08c379a000000000000000000000000000000000000000000000000000000000815260040161036c90610d79565b60405180910390fd5b6103a98260018560405161038991906109cc565b90815260200160405180910390206002015461051e90919063ffffffff16565b6001846040516103b991906109cc565b908152602001604051809103902060020181905550610402816001856040516103e291906109cc565b90815260200160405180910390206003015461051e90919063ffffffff16565b60018460405161041291906109cc565b908152602001604051809103902060030181905550505050565b600060018260405161043e91906109cc565b908152602001604051809103902060010160009054906101000a900460ff169050919050565b60008060009054906101000a900473ffffffffffffffffffffffffffffffffffffffff1673ffffffffffffffffffffffffffffffffffffffff163373ffffffffffffffffffffffffffffffffffffffff16146104f5576040517f08c379a00000000000000000000000000000000000000000000000000000000081526004016104ec90610932565b60405180910390fd5b60018260405161050591906109cc565b9081526020016040518091039020600301549050919050565b6000818361052c9190610dc8565b905092915050565b6000604051905090565b600080fd5b600080fd5b600080fd5b600080fd5b6000601f19601f8301169050919050565b7f4e487b7100000000000000000000000000000000000000000000000000000000600052604160045260246000fd5b61059b82610552565b810181811067ffffffffffffffff821117156105ba576105b9610563565b5b80604052505050565b60006105cd610534565b90506105d98282610592565b919050565b600067ffffffffffffffff8211156105f9576105f8610563565b5b61060282610552565b9050602081019050919050565b82818337600083830152505050565b600061063161062c846105de565b6105c3565b90508281526020810184848401111561064d5761064c61054d565b5b61065884828561060f565b509392505050565b600082601f83011261067557610674610548565b5b813561068584826020860161061e565b91505092915050565b60008115159050919050565b6106a38161068e565b81146106ae57600080fd5b50565b6000813590506106c08161069a565b92915050565b600073ffffffffffffffffffffffffffffffffffffffff82169050919050565b60006106f1826106c6565b9050919050565b610701816106e6565b811461070c57600080fd5b50565b60008135905061071e816106f8565b92915050565b60008060006060848603121561073d5761073c61053e565b5b600084013567ffffffffffffffff81111561075b5761075a610543565b5b61076786828701610660565b9350506020610778868287016106b1565b92505060406107898682870161070f565b9150509250925092565b6000819050919050565b6107a681610793565b81146107b157600080fd5b50565b6000813590506107c38161079d565b92915050565b6000806000606084860312156107e2576107e161053e565b5b600084013567ffffffffffffffff811115610800576107ff610543565b5b61080c86828701610660565b935050602061081d868287016107b4565b925050604061082e868287016107b4565b9150509250925092565b60006020828403121561084e5761084d61053e565b5b600082013567ffffffffffffffff81111561086c5761086b610543565b5b61087884828501610660565b91505092915050565b61088a8161068e565b82525050565b60006020820190506108a56000830184610881565b92915050565b6108b481610793565b82525050565b60006020820190506108cf60008301846108ab565b92915050565b600082825260208201905092915050565b7f43616c6c6572206973206e6f7420636f6e7472616374206f776e657200000000600082015250565b600061091c601c836108d5565b9150610927826108e6565b602082019050919050565b6000602082019050818103600083015261094b8161090f565b9050919050565b600081519050919050565b600081905092915050565b60005b8381101561098657808201518184015260208101905061096b565b83811115610995576000848401525b50505050565b60006109a682610952565b6109b0818561095d565b93506109c0818560208601610968565b80840191505092915050565b60006109d8828461099b565b915081905092915050565b7f456d706c6f79656520697320616c726561647920726567697374657265642e00600082015250565b6000610a19601f836108d5565b9150610a24826109e3565b602082019050919050565b60006020820190508181036000830152610a4881610a0c565b9050919050565b7f4e487b7100000000000000000000000000000000000000000000000000000000600052602260045260246000fd5b60006002820490506001821680610a9657607f821691505b602082108103610aa957610aa8610a4f565b5b50919050565b60008190508160005260206000209050919050565b60006020601f8301049050919050565b600082821b905092915050565b600060088302610b117fffffffffffffffffffffffffffffffffffffffffffffffffffffffffffffffff82610ad4565b610b1b8683610ad4565b95508019841693508086168417925050509392505050565b6000819050919050565b6000610b58610b53610b4e84610793565b610b33565b610793565b9050919050565b6000819050919050565b610b7283610b3d565b610b86610b7e82610b5f565b848454610ae1565b825550505050565b600090565b610b9b610b8e565b610ba6818484610b69565b505050565b5b81811015610bca57610bbf600082610b93565b600181019050610bac565b5050565b601f821115610c0f57610be081610aaf565b610be984610ac4565b81016020851015610bf8578190505b610c0c610c0485610ac4565b830182610bab565b50505b505050565b600082821c905092915050565b6000610c3260001984600802610c14565b1980831691505092915050565b6000610c4b8383610c21565b9150826002028217905092915050565b610c6482610952565b67ffffffffffffffff811115610c7d57610c7c610563565b5b610c878254610a7e565b610c92828285610bce565b600060209050601f831160018114610cc55760008415610cb3578287015190505b610cbd8582610c3f565b865550610d25565b601f198416610cd386610aaf565b60005b82811015610cfb57848901518255600182019150602085019450602081019050610cd6565b86831015610d185784890151610d14601f891682610c21565b8355505b6001600288020188555050505b505050505050565b7f456d706c6f796565206973206e6f7420726567697374657265642e0000000000600082015250565b6000610d63601b836108d5565b9150610d6e82610d2d565b602082019050919050565b60006020820190508181036000830152610d9281610d56565b9050919050565b7f4e487b7100000000000000000000000000000000000000000000000000000000600052601160045260246000fd5b6000610dd382610793565b9150610dde83610793565b9250827fffffffffffffffffffffffffffffffffffffffffffffffffffffffffffffffff03821115610e1357610e12610d99565b5b82820190509291505056fea26469706673582212200427614ef1345b1f87463e9c0279f4d874cff319a30a93b77d6bbc441bc4fa0b64736f6c634300080f0033",
  "immutableReferences": {},
  "source": "pragma solidity >=0.4.25;\n\nimport \"../node_modules/openzeppelin-solidity/contracts/utils/math/SafeMath.sol\";\n\ncontract Employee {\n    using SafeMath for uint256; // Allow SafeMath functions to be called for all uint256 types (similar to \"prototype\" in Javascript)\n\n    struct Profile {\n        string id; \n        bool isRegistered;\n        bool isAdmin;\n        uint256 sales;\n        uint256 bonus;\n        address wallet;\n    }\n\n    address private contractOwner;              // Account used to deploy contract\n    mapping(string => Profile) employees;      // Mapping for storing employees\n\n    constructor() {\n        contractOwner = msg.sender;\n    }\n\n    modifier requireContractOwner() {\n        require(msg.sender == contractOwner, \"Caller is not contract owner\");\n        _;\n    }\n\n    function isEmployeeRegistered(string memory id) external view returns(bool) {\n        return employees[id].isRegistered;\n    }\n\n    function registerEmployee(string memory id, bool isAdmin, address wallet) external requireContractOwner {\n        require(!employees[id].isRegistered, \"Employee is already registered.\");\n\n        employees[id] = Profile({\n                                        id: id,\n                                        isRegistered: true,\n                                        isAdmin: isAdmin,\n                                        sales: 0,\n                                        bonus: 0,\n                                        wallet: wallet\n                                });\n    }\n\n    function getEmployeeBonus(string memory id) external view requireContractOwner returns(uint256) {\n        return employees[id].bonus;\n    }\n\n    function updateEmployee(string memory id, uint256 sales, uint256 bonus) external\n    {\n        require(employees[id].isRegistered, \"Employee is not registered.\");\n\n        employees[id].sales = employees[id].sales.add(sales);\n        employees[id].bonus = employees[id].bonus.add(bonus);\n\n    }\n}",
  "sourcePath": "/Users/venkat/Documents/GitHub/blockchain-notebook/models/data-app-pattern/contracts/Employee.sol",
  "compiler": {
    "name": "solc",
    "version": "0.8.15+commit.e14f2714.Emscripten.clang"
  },
  "schemaVersion": "3.4.7",
  "updatedAt": "2022-07-09T07:09:42.207Z",
  "networkType": "ethereum",
  "devdoc": {
    "kind": "dev",
    "methods": {},
    "version": 1
  },
  "userdoc": {
    "kind": "user",
    "methods": {},
    "version": 1
  }
}