{
  "contractName": "EmployeeApp",
  "abi": [
    {
      "inputs": [
        {
          "internalType": "address",
          "name": "dataContract",
          "type": "address"
        }
      ],
      "stateMutability": "nonpayable",
      "type": "constructor"
    },
    {
      "inputs": [
        {
          "internalType": "string",
          "name": "id",
          "type": "string"
        },
        {
          "internalType": "uint256",
          "name": "amount",
          "type": "uint256"
        }
      ],
      "name": "addSale",
      "outputs": [],
      "stateMutability": "nonpayable",
      "type": "function"
    },
    {
      "inputs": [
        {
          "internalType": "uint256",
          "name": "sales",
          "type": "uint256"
        }
      ],
      "name": "calculateBonus",
      "outputs": [
        {
          "internalType": "uint256",
          "name": "",
          "type": "uint256"
        }
      ],
      "stateMutability": "view",
      "type": "function",
      "constant": true
    }
  ],
  "bytecode": "0x608060405234801561001057600080fd5b506040516109ad3803806109ad8339818101604052810190610032919061011c565b33600160006101000a81548173ffffffffffffffffffffffffffffffffffffffff021916908373ffffffffffffffffffffffffffffffffffffffff160217905550806000806101000a81548173ffffffffffffffffffffffffffffffffffffffff021916908373ffffffffffffffffffffffffffffffffffffffff16021790555050610149565b600080fd5b600073ffffffffffffffffffffffffffffffffffffffff82169050919050565b60006100e9826100be565b9050919050565b6100f9816100de565b811461010457600080fd5b50565b600081519050610116816100f0565b92915050565b600060208284031215610132576101316100b9565b5b600061014084828501610107565b91505092915050565b610855806101586000396000f3fe608060405234801561001057600080fd5b50600436106100365760003560e01c80635cd25e531461003b5780636081f5cb14610057575b600080fd5b6100556004803603810190610050919061050f565b610087565b005b610071600480360381019061006c919061056b565b610223565b60405161007e91906105a7565b60405180910390f35b600160009054906101000a900473ffffffffffffffffffffffffffffffffffffffff1673ffffffffffffffffffffffffffffffffffffffff163373ffffffffffffffffffffffffffffffffffffffff1614610117576040517f08c379a000000000000000000000000000000000000000000000000000000000815260040161010e9061061f565b60405180910390fd5b60008054906101000a900473ffffffffffffffffffffffffffffffffffffffff1673ffffffffffffffffffffffffffffffffffffffff166356b35dd583833073ffffffffffffffffffffffffffffffffffffffff16636081f5cb866040518263ffffffff1660e01b815260040161018e91906105a7565b602060405180830381865afa1580156101ab573d6000803e3d6000fd5b505050506040513d601f19601f820116820180604052508101906101cf9190610654565b6040518463ffffffff1660e01b81526004016101ed939291906106f8565b600060405180830381600087803b15801561020757600080fd5b505af115801561021b573d6000803e3d6000fd5b505050505050565b6000600160009054906101000a900473ffffffffffffffffffffffffffffffffffffffff1673ffffffffffffffffffffffffffffffffffffffff163373ffffffffffffffffffffffffffffffffffffffff16146102b5576040517f08c379a00000000000000000000000000000000000000000000000000000000081526004016102ac9061061f565b60405180910390fd5b60648210156102ec576102e560646102d760058561035390919063ffffffff16565b61036990919063ffffffff16565b905061034e565b6101f48210156103245761031d606461030f60078561035390919063ffffffff16565b61036990919063ffffffff16565b905061034e565b61034b606461033d600a8561035390919063ffffffff16565b61036990919063ffffffff16565b90505b919050565b600081836103619190610765565b905092915050565b6000818361037791906107ee565b905092915050565b6000604051905090565b600080fd5b600080fd5b600080fd5b600080fd5b6000601f19601f8301169050919050565b7f4e487b7100000000000000000000000000000000000000000000000000000000600052604160045260246000fd5b6103e68261039d565b810181811067ffffffffffffffff82111715610405576104046103ae565b5b80604052505050565b600061041861037f565b905061042482826103dd565b919050565b600067ffffffffffffffff821115610444576104436103ae565b5b61044d8261039d565b9050602081019050919050565b82818337600083830152505050565b600061047c61047784610429565b61040e565b90508281526020810184848401111561049857610497610398565b5b6104a384828561045a565b509392505050565b600082601f8301126104c0576104bf610393565b5b81356104d0848260208601610469565b91505092915050565b6000819050919050565b6104ec816104d9565b81146104f757600080fd5b50565b600081359050610509816104e3565b92915050565b6000806040838503121561052657610525610389565b5b600083013567ffffffffffffffff8111156105445761054361038e565b5b610550858286016104ab565b9250506020610561858286016104fa565b9150509250929050565b60006020828403121561058157610580610389565b5b600061058f848285016104fa565b91505092915050565b6105a1816104d9565b82525050565b60006020820190506105bc6000830184610598565b92915050565b600082825260208201905092915050565b7f43616c6c6572206973206e6f7420636f6e7472616374206f776e657200000000600082015250565b6000610609601c836105c2565b9150610614826105d3565b602082019050919050565b60006020820190508181036000830152610638816105fc565b9050919050565b60008151905061064e816104e3565b92915050565b60006020828403121561066a57610669610389565b5b60006106788482850161063f565b91505092915050565b600081519050919050565b60005b838110156106aa57808201518184015260208101905061068f565b838111156106b9576000848401525b50505050565b60006106ca82610681565b6106d481856105c2565b93506106e481856020860161068c565b6106ed8161039d565b840191505092915050565b6000606082019050818103600083015261071281866106bf565b90506107216020830185610598565b61072e6040830184610598565b949350505050565b7f4e487b7100000000000000000000000000000000000000000000000000000000600052601160045260246000fd5b6000610770826104d9565b915061077b836104d9565b9250817fffffffffffffffffffffffffffffffffffffffffffffffffffffffffffffffff04831182151516156107b4576107b3610736565b5b828202905092915050565b7f4e487b7100000000000000000000000000000000000000000000000000000000600052601260045260246000fd5b60006107f9826104d9565b9150610804836104d9565b925082610814576108136107bf565b5b82820490509291505056fea2646970667358221220e791148e57da17c2fc28a464426570d3c7f8f65efcb899b596ecfc767275c0d564736f6c634300080f0033",
  "immutableReferences": {},
  "source": "// SPDX-License-Identifier: MIT\nimport \"../node_modules/openzeppelin-solidity/contracts/utils/math/SafeMath.sol\";\nimport \"./Employee.sol\";\n\ncontract EmployeeApp {\n    using SafeMath for uint256;\n    Employee employee;\n\n    address private contractOwner;              // Account used to deploy contract\n    constructor(address dataContract) {\n        contractOwner = msg.sender;\n        employee = Employee(dataContract);\n    }\n    \n    modifier requireContractOwner() {\n        require(msg.sender == contractOwner, \"Caller is not contract owner\");\n        _;\n    }\n    function addSale(string memory id, uint256 amount) public requireContractOwner {\n        employee.updateEmployee(id, amount, this.calculateBonus(amount));\n    }\n    function calculateBonus(uint256 sales) public view requireContractOwner returns(uint256) {\n        if (sales < 100) {\n            return sales.mul(5).div(100);\n        }\n        else if (sales < 500) {\n            return sales.mul(7).div(100);\n        }\n        else {\n            return sales.mul(10).div(100);\n        }\n    }\n}",
  "sourcePath": "/Users/venkat/Documents/GitHub/blockchain-notebook/models/data-app-pattern/contracts/EmployeeApp.sol",
  "compiler": {
    "name": "solc",
    "version": "0.8.15+commit.e14f2714.Emscripten.clang"
  },
  "schemaVersion": "3.4.7",
  "updatedAt": "2022-07-09T07:09:42.235Z",
  "networkType": "ethereum",
  "devdoc": {
    "kind": "dev",
    "methods": {},
    "version": 1
  },
  "userdoc": {
    "kind": "user",
    "methods": {},
    "version": 1
  }
}